:020000040800F2
:1000000048040020490100089F01000897010008EA
:100010009B01000891010008450200080000000053
:10002000000000000000000000000000CB010008FC
:100030009501000800000000C9010008CD0100087A
:100040006301000863010008630100086301000800
:1000500063010008630100086301000863010008F0
:1000600063010008630100086301000863010008E0
:1000700063010008630100086301000863010008D0
:1000800063010008630100086301000863010008C0
:1000900063010008630100086301000863010008B0
:1000A00063010008630100086301000863010008A0
:1000B0006301000863010008630100086301000890
:1000C0006301000863010008630100086301000880
:1000D0006301000863010008630100086301000870
:1000E0006301000863010008630100086301000860
:1000F0006301000863010008630100086301000850
:10010000630100086301000863010008630100083F
:10011000630100086301000863010008630100082F
:10012000630100086301000863010008630100081F
:10013000DFF810D000F01AF800480047A5030008C7
:10014000AFF3008048040020064880470648004777
:10015000FEE7FEE7FEE7FEE7FEE7FEE7FEE7FEE777
:10016000FEE7FEE7D501000831010008064C074D07
:1001700006E0E06840F0010394E807009847103477
:10018000AC42F6D3FFF7D8FF0C0700082C07000895
:1001900000BFFEE7704700BFFEE700BFFEE7704705
:1001A00010B5002807DA0A07140E054A00F00F03FD
:1001B0001B1FD45403E00A07130E024A135410BD48
:1001C00018ED00E000E400E07047704710B500F063
:1001D00055F810BD08B51848006840F4700016497D
:1001E00008601648006840F001001449086008469D
:1001F000406840F0800048600020009002E00098D5
:10020000401C009044F6206100988842F7D30020FB
:100210000A494860C8620846006809490840074919
:1002200008604FF41F0088600846006820F48020B2
:10023000086000F03FFA08BD88ED00E000100240C1
:10024000FFFFF6FE00BFFEE702E008C8121F08C16C
:10025000002AFAD170477047002001E001C1121F47
:10026000002AFBD1704700000349086000BF024923
:1002700009680029FBD1704740000020044800684D
:1002800020B103480068401E014908607047000023
:100290004000002010B540F2056000F071F94FF603
:1002A000FF7303221021024800F004F810BD000083
:1002B00000140140F0B5044616460025002201F066
:1002C0000F0501F0100747B1042E05D145F00305D5
:1002D000E76B1F43E76300E0354300201EE0012782
:1002E00087401F40C7B122684FEA800C0F2707FAEA
:1002F0000CF7BA43870005FA07F73A43282904D1D7
:10030000012787401F40676105E0482903D1012785
:1003100087401F4027612260471CB8B20828DED3FF
:10032000082022E0012787401F40E7B16268A0F162
:1003300008074FEA870C0F2707FA0CF7BA43A0F11A
:100340000807BF0005FA07F73A43282904D1012717
:1003500087401F40676105E0482903D10127874096
:100360001F4027616260471CB8B21028DAD3F0BD85
:1003700002469068084008B1012070470020FCE761
:10038000C160704710B540F2036000F0F9F84FF615
:10039000FF73032248210248FFF78CFF10BD0000C5
:1003A000000C0140FFF7EEFFFFF774FF00F086F945
:1003B000DEE001216F48FFF7DBFFB0B93220FFF725
:1003C00053FF01216B48FFF7D3FF0028F0D16A48A3
:1003D000808E81B26948FFF7D3FF00BF01216548D5
:1003E000FFF7C6FF0028F9D0C2E002216148FFF7FD
:1003F000BFFFB0B93220FFF737FF02215D48FFF79A
:10040000B7FF0028D4D15C48008881B25B48FFF771
:10041000B7FF00BF02215748FFF7AAFF0028F9D015
:10042000A6E04FF480715348FFF7A2FFC0B9322015
:10043000FFF71AFF4FF480714E48FFF799FF00282D
:10044000B6D14D48808881B24C48FFF799FF00BF74
:100450004FF480714748FFF78BFF0028F8D087E002
:1004600008214448FFF784FFB0B93220FFF7FCFEB3
:1004700008214048FFF77CFF002879D13E480089D9
:1004800081B23E48FFF77CFF00BF08213948FFF7E3
:100490006FFF0028F9D06BE010213648FFF768FFA6
:1004A000B0B93220FFF7E0FE10213248FFF760FFBD
:1004B00000285DD13048008A81B23048FFF760FFE4
:1004C00000BF10212B48FFF753FF0028F9D04FE061
:1004D00020212848FFF74CFFA8B93220FFF7C4FEBF
:1004E00020212448FFF744FF38BB2348808A81B28B
:1004F0002248FFF745FF00BF20211E48FFF738FFC5
:100500000028F9D034E040211A48FFF731FFA8B99C
:100510003220FFF7A9FE40211648FFF729FF60B9F6
:100520001548008B81B21548FFF72AFF00BF402114
:100530001048FFF71DFF0028F9D019E080210D4871
:10054000FFF716FFA0B93220FFF78EFE8021094881
:10055000FFF70EFF60B90848008C81B20748FFF72B
:100560000FFF00BF80210348FFF702FF0028F9D0EA
:100570001FE70000000C01400000002000140140B3
:10058000064A02EB9011096800F01F0301229A400D
:100590001143024B03EB90121160704700100240B0
:1005A000002000213F4A126842F480323D4B1A601D
:1005B00000BF401C3B4A126802F4003119B94FF6E3
:1005C000FF729042F5D1374A126802F400320AB93C
:1005D00000BFFEE7334AD26942F08052314BDA6104
:1005E000314A126842F440422F4B1A602D4A526839
:1005F0002C4B5A601A4652685A601A46526842F4A6
:1006000080625A601A46526822F440325A601A4692
:10061000526842F440325A601A465268234B1A40DC
:10062000204B5A601A465268214B1A431D4B5A60A0
:100630001A46126842F080721A6000BF194A1268A6
:1006400002F00072002AF9D0174A126842F4803290
:10065000154B1A6000BF144A526802F48032002A17
:10066000F9D0114A126842F400320F4B1A6000BFF1
:100670000D4A526802F40032002AF9D0094A526841
:1006800022F00302074B5A601A46526842F00202F7
:100690005A6000BF034A526802F00802002AF9D0EB
:1006A000704700000010024000700040FFFFC3B719
:1006B0000000340810B5FFF773FF10BD10B51248E5
:1006C00000684FF47A71B0FBF1F4601EB0F1807FE6
:1006D00001D301200FE0601E4FF0E02148610F219F
:1006E0004FF0FF30FFF75CFD00204FF0E021886104
:1006F00007200861002008B100BFFEE70021481E66
:10070000FFF74EFD10BD0000440000202C0700083C
:10071000000000204800000048020008740700089C
:1007200048000020000400005802000806000000F5
:100730005B0000004F000000770000006600000032
:100740006D0000007D0000007C000000070000003C
:100750007F0000006F0000003900000079000000F9
:100760003F0000005E00000071000000000000007B
:04077000000E270749
:0400000508000131BD
:00000001FF
