:020000040800F2
:1000000048040020490100089F01000897010008EA
:100010009B01000891010008450200080000000053
:10002000000000000000000000000000CB010008FC
:100030009501000800000000C9010008CD0100087A
:100040006301000863010008630100086301000800
:1000500063010008630100086301000863010008F0
:1000600063010008630100086301000863010008E0
:1000700063010008630100086301000863010008D0
:1000800063010008630100086301000863010008C0
:1000900063010008630100086301000863010008B0
:1000A00063010008630100086301000863010008A0
:1000B0006301000863010008630100086301000890
:1000C0006301000863010008630100086301000880
:1000D0006301000863010008630100086301000870
:1000E0006301000863010008630100086301000860
:1000F0006301000863010008630100086301000850
:10010000630100086301000863010008630100083F
:10011000630100086301000863010008630100082F
:10012000630100086301000863010008630100081F
:10013000DFF810D000F01AF800480047CD0300089F
:10014000AFF3008048040020064880470648004777
:10015000FEE7FEE7FEE7FEE7FEE7FEE7FEE7FEE777
:10016000FEE7FEE7D501000831010008064C074D07
:1001700006E0E06840F0010394E807009847103477
:10018000AC42F6D3FFF7D8FFD4090008F409000801
:1001900000BFFEE7704700BFFEE700BFFEE7704705
:1001A00010B5002807DA0A07140E054A00F00F03FD
:1001B0001B1FD45403E00A07130E024A135410BD48
:1001C00018ED00E000E400E07047704710B500F063
:1001D00055F810BD08B51848006840F4700016497D
:1001E00008601648006840F001001449086008469D
:1001F000406840F0800048600020009002E00098D5
:10020000401C009044F6206100988842F7D30020FB
:100210000A494860C8620846006809490840074919
:1002200008604FF41F0088600846006820F48020B2
:10023000086000F0A3FB08BD88ED00E0001002405C
:10024000FFFFF6FE00BFFEE702E008C8121F08C16C
:10025000002AFAD170477047002001E001C1121F47
:10026000002AFBD1704700000349086000BF024923
:1002700009680029FBD1704740000020044800684D
:1002800020B103480068401E014908607047000023
:100290004000002010B540F2056000F0D5FA4FF69E
:1002A000FF7303221021024800F009F810BD00007E
:1002B000001401400AB1016100E041617047F0B5EE
:1002C000044616460025002201F00F0501F0100734
:1002D00047B1042E05D145F00305E76B1F43E763E3
:1002E00000E0354300201EE0012787401F40C7B1D2
:1002F00022684FEA800C0F2707FA0CF7BA438700F1
:1003000005FA07F73A43282904D1012787401F40FF
:10031000676105E0482903D1012787401F40276115
:100320002260471CB8B20828DED3082022E001274B
:1003300087401F40E7B16268A0F108074FEA870CC9
:100340000F2707FA0CF7BA43A0F10807BF0005FA18
:1003500007F73A43282904D1012787401F406761E6
:1003600005E0482903D1012787401F4027616260CB
:10037000471CB8B21028DAD3F0BD02469068084096
:1003800008B1012070470020FCE70246D068084011
:1003900008B1012070470020FCE7C16070470000F1
:1003A00010B540F2036000F04FFAF0230322482119
:1003B0000548FFF784FF40F20B1303221021024887
:1003C000FFF77DFF10BD0000000C0140FFF7E8FFC4
:1003D000FFF760FF00F0D6FA2FE2FE21F948FFF7A1
:1003E000DCFF00220121F748FFF764FF0122022110
:1003F000F448FFF75FFF01221102F248FFF75AFFAE
:1004000001220821EF48FFF755FF0121ED48FFF7D2
:10041000BCFF00286CD11021EA48FFF7AEFFB0B94D
:100420003220FFF721FF1021E648FFF7A6FF002842
:100430005ED1E548008881B2E448FFF7AEFF00BF17
:100440001021E048FFF799FF0028F9D050E0202163
:10045000DC48FFF792FFB0B93220FFF705FF2021FB
:10046000D848FFF78AFF002842D1D748808881B258
:10047000D648FFF792FF00BF2021D248FFF77DFF4B
:100480000028F9D034E04021CE48FFF776FFA8B924
:100490003220FFF7E9FE4021CA48FFF76EFF38BB64
:1004A000C948008981B2C948FFF777FF00BF4021E2
:1004B000C448FFF762FF0028F9D019E08021C14845
:1004C000FFF75BFFA0B93220FFF7CEFE8021BD48C9
:1004D000FFF753FF60B9BC48808981B2BB48FFF782
:1004E0005CFF00BF8021B748FFF747FF0028F9D025
:1004F000FD21B448FFF751FF01221146B148FFF733
:10050000D9FE00220221AF48FFF7D4FE01221102DA
:10051000AC48FFF7CFFE01220821AA48FFF7CAFE28
:100520000221A848FFF731FF00286BD11021A54810
:10053000FFF723FFB0B93220FFF796FE1021A14844
:10054000FFF71BFF00285DD19F48008A81B29F48BA
:10055000FFF723FF00BF10219A48FFF70EFF002886
:10056000F9D04FE020219748FFF707FFA8B93220C4
:10057000FFF77AFE20219348FFF7FFFE38BB924831
:10058000808A81B29148FFF708FF00BF20218D4883
:10059000FFF7F3FE0028F9D034E040218948FFF747
:1005A000ECFEA8B93220FFF75FFE40218548FFF737
:1005B000E4FE60B98448008B81B28448FFF7EDFE09
:1005C00000BF40217F48FFF7D8FE0028F9D019E08E
:1005D00080217C48FFF7D1FEA0B93220FFF744FE0E
:1005E00080217848FFF7C9FE60B97748808B81B2D7
:1005F0007648FFF7D2FE00BF80217248FFF7BDFEAC
:100600000028F9D0FB216F48FFF7C7FE01221146F1
:100610006C48FFF74FFE012202216A48FFF74AFEAD
:1006200000224FF480716748FFF744FE0122082141
:100630006448FFF73FFE4FF480716248FFF7A5FE64
:1006400000286BD110215F48FFF797FEB0B9322028
:10065000FFF70AFE10215B48FFF78FFE00285DD1EF
:100660005948008C81B25948FFF797FE00BF10210E
:100670005448FFF782FE0028F9D04FE0202151486E
:10068000FFF77BFEA8B93220FFF7EEFD20214D4891
:10069000FFF773FE38BB4C48808C81B24B48FFF7A4
:1006A0007CFE00BF20214748FFF767FE0028F9D0F5
:1006B00034E040214348FFF760FEA8B93220FFF73D
:1006C000D3FD40213F48FFF758FE60B93E48008DFA
:1006D00081B23E48FFF761FE00BF40213948FFF775
:1006E0004CFE0028F9D019E080213648FFF745FE7E
:1006F000A0B93220FFF7B8FD80213248FFF73DFE58
:1007000060B93148808D81B23048FFF746FE00BFA6
:1007100080212C48FFF731FE0028F9D0F721294825
:10072000FFF73BFE012211462648FFF7C3FD0122D9
:1007300002212448FFF7BEFD012211022148FFF7E4
:10074000B9FD002208211F48FFF7B4FD08211D480C
:10075000FFF71BFE002870D110211A48FFF70DFE8D
:10076000A8B93220FFF780FD10211648FFF705FEDB
:1007700038BB1548008E81B21448FFF70EFE00BF4B
:1007800010211048FFF7F9FD0028F9D055E020218D
:100790000C48FFF7F2FDD8B93220FFF765FD2021A4
:1007A0000848FFF7EAFD60B90748808E81B2074824
:1007B000FFF7F3FD00BF20210248FFF7DEFD002810
:1007C000F9D03AE0000C0140000000200014014084
:1007D00040211A48FFF7D1FDA8B93220FFF744FDA8
:1007E00040211648FFF7C9FD38BB1548008F81B27C
:1007F0001448FFF7D2FD00BF40211048FFF7BDFDB0
:100800000028F9D019E080210C48FFF7B6FDA0B907
:100810003220FFF729FD80210848FFF7AEFD60B9BF
:100820000748808F81B20748FFF7B7FD00BF8021DE
:100830000248FFF7A2FD0028F9D0CEE5000C0140E8
:100840000000002000140140064A02EB90110968E4
:1008500000F01F0301229A401143024B03EB901258
:100860001160704700100240002000213F4A1268CA
:1008700042F480323D4B1A6000BF401C3B4A126874
:1008800002F4003119B94FF6FF729042F5D1374AA0
:10089000126802F400320AB900BFFEE7334AD26997
:1008A00042F08052314BDA61314A126842F44042E0
:1008B0002F4B1A602D4A52682C4B5A601A465268C8
:1008C0005A601A46526842F480625A601A46526868
:1008D00022F440325A601A46526842F440325A605A
:1008E0001A465268234B1A40204B5A601A465268E7
:1008F000214B1A431D4B5A601A46126842F080720F
:100900001A6000BF194A126802F00072002AF9D07A
:10091000174A126842F48032154B1A6000BF144A1D
:10092000526802F48032002AF9D0114A126842F467
:1009300000320F4B1A6000BF0D4A526802F40032B9
:10094000002AF9D0094A526822F00302074B5A6084
:100950001A46526842F002025A6000BF034A5268C7
:1009600002F00802002AF9D070470000001002408F
:1009700000700040FFFFC3B70000340810B5FFF758
:1009800073FF10BD10B5124800684FF47A71B0FBC8
:10099000F1F4601EB0F1807F01D301200FE0601EF2
:1009A0004FF0E02148610F214FF0FF30FFF7F8FBD7
:1009B00000204FF0E021886107200861002008B185
:1009C00000BFFEE70021481EFFF7EAFB10BD000054
:1009D00044000020F4090008000000204800000046
:1009E000480200083C0A00084800002000040000FB
:1009F00058020008060000005B0000004F000000E5
:100A000077000000660000006D0000007D0000001F
:100A10007C000000070000007F0000006F00000065
:100A200039000000000000003F000000FF0000004F
:0C0A30005E00000000000000000E270720
:0400000508000131BD
:00000001FF
