:020000040800F2
:1000000030040020490100089F0100089701000802
:100010009B01000891010008450200080000000053
:10002000000000000000000000000000CB010008FC
:100030009501000800000000C9010008CD0100087A
:100040006301000863010008630100086301000800
:1000500063010008630100086301000863010008F0
:1000600063010008630100086301000863010008E0
:1000700063010008630100086301000863010008D0
:1000800063010008630100086301000863010008C0
:1000900063010008630100086301000863010008B0
:1000A00063010008630100086301000863010008A0
:1000B0006301000863010008630100086301000890
:1000C0006301000863010008630100086301000880
:1000D0006301000863010008630100086301000870
:1000E0006301000863010008630100086301000860
:1000F0006301000863010008630100086301000850
:10010000630100086301000863010008630100083F
:10011000630100086301000863010008630100082F
:10012000630100086301000863010008630100081F
:10013000DFF810D000F01AF80048004775030008F7
:10014000AFF300803004002006488047064800478F
:10015000FEE7FEE7FEE7FEE7FEE7FEE7FEE7FEE777
:10016000FEE7FEE7D501000831010008064C074D07
:1001700006E0E06840F0010394E807009847103477
:10018000AC42F6D3FFF7D8FF340500085405000849
:1001900000BFFEE7704700BFFEE700BFFEE7704705
:1001A00010B5002807DA0A07140E054A00F00F03FD
:1001B0001B1FD45403E00A07130E024A135410BD48
:1001C00018ED00E000E400E07047704710B500F063
:1001D00055F810BD08B51848006840F4700016497D
:1001E00008601648006840F001001449086008469D
:1001F000406840F0800048600020009002E00098D5
:10020000401C009044F6206100988842F7D30020FB
:100210000A494860C8620846006809490840074919
:1002200008604FF41F0088600846006820F48020B2
:10023000086000F053F908BD88ED00E000100240AE
:10024000FFFFF6FE00BFFEE702E008C8121F08C16C
:10025000002AFAD170477047002001E001C1121F47
:10026000002AFBD1704700000349086000BF024923
:1002700009680029FBD17047280000200448006865
:1002800020B103480068401E014908607047000023
:100290002800002010B540F2056000F085F84FF608
:1002A000FF7303221021024800F004F810BD000083
:1002B00000140140F0B5044616460025002201F066
:1002C0000F0501F0100747B1042E05D145F00305D5
:1002D000E76B1F43E76300E0354300201EE0012782
:1002E00087401F40C7B122684FEA800C0F2707FAEA
:1002F0000CF7BA43870005FA07F73A43282904D1D7
:10030000012787401F40676105E0482903D1012785
:1003100087401F4027612260471CB8B20828DED3FF
:10032000082022E0012787401F40E7B16268A0F162
:1003300008074FEA870C0F2707FA0CF7BA43A0F11A
:100340000807BF0005FA07F73A43282904D1012717
:1003500087401F40676105E0482903D10127874096
:100360001F4027616260471CB8B21028DAD3F0BD85
:10037000C1607047FFF78EFF00F0B4F80FE0002473
:100380000BE0074830F8240081B20648FFF7F0FF81
:100390004FF47A70FFF768FF641C092CF1DDEEE77B
:1003A0000000002000140140064A02EB9011096889
:1003B00000F01F0301229A401143024B03EB9012FD
:1003C0001160704700100240002000213F4A12686F
:1003D00042F480323D4B1A6000BF401C3B4A126819
:1003E00002F4003119B94FF6FF729042F5D1374A45
:1003F000126802F400320AB900BFFEE7334AD2693C
:1004000042F08052314BDA61314A126842F4404284
:100410002F4B1A602D4A52682C4B5A601A4652686C
:100420005A601A46526842F480625A601A4652680C
:1004300022F440325A601A46526842F440325A60FE
:100440001A465268234B1A40204B5A601A4652688B
:10045000214B1A431D4B5A601A46126842F08072B3
:100460001A6000BF194A126802F00072002AF9D01F
:10047000174A126842F48032154B1A6000BF144AC2
:10048000526802F48032002AF9D0114A126842F40C
:1004900000320F4B1A6000BF0D4A526802F400325E
:1004A000002AF9D0094A526822F00302074B5A6029
:1004B0001A46526842F002025A6000BF034A52686C
:1004C00002F00802002AF9D0704700000010024034
:1004D00000700040FFFFC3B70000340810B5FFF7FD
:1004E00073FF10BD10B5124800684FF47A71B0FB6D
:1004F000F1F4601EB0F1807F01D301200FE0601E97
:100500004FF0E02148610F214FF0FF30FFF748FE28
:1005100000204FF0E021886107200861002008B129
:1005200000BFFEE70021481EFFF73AFE10BD0000A5
:100530002C000020540500080000002030000000BE
:100540004802000884050008300000200004000074
:10055000580200083F000000060000005B00000099
:100560004F000000660000006D0000007D000000EC
:10057000070000007F0000006F0000000000000086
:04058000000E27073B
:0400000508000131BD
:00000001FF
