:020000040800F2
:1000000048040020490100089F01000897010008EA
:100010009B01000891010008450200080000000053
:10002000000000000000000000000000CB010008FC
:100030009501000800000000C9010008CD0100087A
:100040006301000863010008630100086301000800
:1000500063010008630100086301000863010008F0
:1000600063010008630100086301000863010008E0
:1000700063010008630100086301000863010008D0
:1000800063010008630100086301000863010008C0
:1000900063010008630100086301000863010008B0
:1000A00063010008630100086301000863010008A0
:1000B0006301000863010008630100086301000890
:1000C0006301000863010008630100086301000880
:1000D0006301000863010008630100086301000870
:1000E0006301000863010008630100086301000860
:1000F0006301000863010008630100086301000850
:10010000630100086301000863010008630100083F
:10011000630100086301000863010008630100082F
:10012000630100086301000863010008630100081F
:10013000DFF810D000F01AF800480047CD0300089F
:10014000AFF3008048040020064880470648004777
:10015000FEE7FEE7FEE7FEE7FEE7FEE7FEE7FEE777
:10016000FEE7FEE7D501000831010008064C074D07
:1001700006E0E06840F0010394E807009847103477
:10018000AC42F6D3FFF7D8FFEC0900080C0A0008D0
:1001900000BFFEE7704700BFFEE700BFFEE7704705
:1001A00010B5002807DA0A07140E054A00F00F03FD
:1001B0001B1FD45403E00A07130E024A135410BD48
:1001C00018ED00E000E400E07047704710B500F063
:1001D00055F810BD08B51848006840F4700016497D
:1001E00008601648006840F001001449086008469D
:1001F000406840F0800048600020009002E00098D5
:10020000401C009044F6206100988842F7D30020FB
:100210000A494860C8620846006809490840074919
:1002200008604FF41F0088600846006820F48020B2
:10023000086000F0AFFB08BD88ED00E00010024050
:10024000FFFFF6FE00BFFEE702E008C8121F08C16C
:10025000002AFAD170477047002001E001C1121F47
:10026000002AFBD1704700000349086000BF024923
:1002700009680029FBD1704740000020044800684D
:1002800020B103480068401E014908607047000023
:100290004000002010B540F2056000F0E1FA4FF692
:1002A000FF7303221021024800F009F810BD00007E
:1002B000001401400AB1016100E041617047F0B5EE
:1002C000044616460025002201F00F0501F0100734
:1002D00047B1042E05D145F00305E76B1F43E763E3
:1002E00000E0354300201EE0012787401F40C7B1D2
:1002F00022684FEA800C0F2707FA0CF7BA438700F1
:1003000005FA07F73A43282904D1012787401F40FF
:10031000676105E0482903D1012787401F40276115
:100320002260471CB8B20828DED3082022E001274B
:1003300087401F40E7B16268A0F108074FEA870CC9
:100340000F2707FA0CF7BA43A0F10807BF0005FA18
:1003500007F73A43282904D1012787401F406761E6
:1003600005E0482903D1012787401F4027616260CB
:10037000471CB8B21028DAD3F0BD02469068084096
:1003800008B1012070470020FCE70246D068084011
:1003900008B1012070470020FCE7C16070470000F1
:1003A00010B540F2036000F05BFA40F20B13032239
:1003B00048210548FFF783FFF0230322102102485C
:1003C000FFF77DFF10BD0000000C0140FFF7E8FFC4
:1003D000FFF760FF00F0E2FA3AE2FE21FD48FFF786
:1003E000DCFF00221021FB48FFF764FF01222021DF
:1003F000F848FFF75FFF01224021F648FFF75AFF58
:1004000001228021F348FFF755FF1021F148FFF743
:10041000BCFF00286FD10121EE48FFF7AEFFB0B955
:100420003220FFF721FF0121EA48FFF7A6FF00284D
:1004300061D1E948008881B2E848FFF7AEFF00BF0C
:100440000121E448FFF799FF0028F9D053E0022189
:10045000E048FFF792FFB0B93220FFF705FF022115
:10046000DC48FFF78AFF002845D1DB48808881B24D
:10047000DA48FFF792FF00BF0221D648FFF77DFF61
:100480000028F9D037E04FF48071D248FFF775FFAC
:10049000B8B93220FFF7E8FE4FF48071CD48FFF77E
:1004A0006CFF40BBCC48008981B2CC48FFF775FF98
:1004B00000BF4FF48071C748FFF75FFF0028F8D0F6
:1004C00019E00821C348FFF758FFA0B93220FFF711
:1004D000CBFE0821BF48FFF750FF60B9BE488089B6
:1004E00081B2BE48FFF759FF00BF0821B948FFF7A6
:1004F00044FF0028F9D0FD21B648FFF74EFF012246
:100500001021B448FFF7D6FE00222021B148FFF7A2
:10051000D1FE01224021AF48FFF7CCFE012280210D
:10052000AC48FFF7C7FE2021AA48FFF72EFF00289E
:100530006ED10121A748FFF720FFB0B93220FFF7A5
:1005400093FE0121A348FFF718FF002860D1A248BD
:10055000008A81B2A148FFF720FF00BF01219D481A
:10056000FFF70BFF0028F9D052E002219948FFF76E
:1005700004FFA8B93220FFF777FE02219548FFF764
:10058000FCFE50BB9448808A81B29448FFF705FF77
:1005900000BF02218F48FFF7F0FE0028F9D037E0B6
:1005A0004FF480718B48FFF7E8FEB8B93220FFF7AF
:1005B0005BFE4FF480718748FFF7DFFE68B986481D
:1005C000008B81B28548FFF7E8FE00BF4FF48071D1
:1005D0008048FFF7D2FE0028F8D019E008217D48B6
:1005E000FFF7CBFEA0B93220FFF73EFE0821794885
:1005F000FFF7C3FE60B97848808B81B27748FFF778
:10060000CCFE00BF08217348FFF7B7FE0028F9D0E1
:10061000FB217048FFF7C1FE012210216D48FFF752
:1006200049FE012220216B48FFF744FE00224021B1
:100630006848FFF73FFE012280216648FFF73AFE37
:1006400040216448FFF7A1FE00286ED101216148D6
:10065000FFF793FEB0B93220FFF706FE01215D4897
:10066000FFF78BFE002860D15B48008C81B25B48AD
:10067000FFF793FE00BF01215648FFF77EFE0028DA
:10068000F9D052E002215348FFF777FEA8B9322093
:10069000FFF7EAFD02214F48FFF76FFE50BB4E48BF
:1006A000808C81B24D48FFF778FE00BF0221494897
:1006B000FFF763FE0028F9D037E04FF4807145481A
:1006C000FFF75BFEB8B93220FFF7CEFD4FF4807123
:1006D0004048FFF752FE68B93F48008D81B23F485D
:1006E000FFF75BFE00BF4FF480713A48FFF745FE0D
:1006F0000028F8D019E008213648FFF73EFEA0B9DF
:100700003220FFF7B1FD08213248FFF736FE60B90D
:100710003148808D81B23148FFF73FFE00BF08218C
:100720002C48FFF72AFE0028F9D0F7212948FFF7C7
:1007300034FE012210212748FFF7BCFD01222021B1
:100740002448FFF7B7FD012240212248FFF7B2FD00
:10075000002280211F48FFF7ADFD80211D48FFF7D3
:1007600014FE002874D101211A48FFF706FEA8B92B
:100770003220FFF779FD01211648FFF7FEFD38BB57
:100780001548008E81B21548FFF707FE00BF012112
:100790001048FFF7F2FD0028F9D059E002210D487A
:1007A000FFF7EBFDE0B93220FFF75EFD02210948BB
:1007B000FFF7E3FD60B90848808E81B20748FFF774
:1007C000ECFD00BF02210348FFF7D7FD0028F9D058
:1007D0003EE00000000C0140000000200014014039
:1007E0004FF480711B48FFF7C8FDB8B93220FFF7FE
:1007F0003BFD4FF480711748FFF7BFFD40BB164823
:10080000008F81B21548FFF7C8FD00BF4FF480711B
:100810001048FFF7B2FD0028F8D019E008210D4874
:10082000FFF7ABFDA0B93220FFF71EFD08210948F4
:10083000FFF7A3FD60B90848808F81B20748FFF732
:10084000ACFD00BF08210348FFF797FD0028F9D051
:10085000C3E50000000C014000000020001401402E
:10086000064A02EB9011096800F01F0301229A402A
:100870001143024B03EB90121160704700100240CD
:10088000002000213F4A126842F480323D4B1A603A
:1008900000BF401C3B4A126802F4003119B94FF600
:1008A000FF729042F5D1374A126802F400320AB959
:1008B00000BFFEE7334AD26942F08052314BDA6121
:1008C000314A126842F440422F4B1A602D4A526856
:1008D0002C4B5A601A4652685A601A46526842F4C3
:1008E00080625A601A46526822F440325A601A46B0
:1008F000526842F440325A601A465268234B1A40FA
:10090000204B5A601A465268214B1A431D4B5A60BD
:100910001A46126842F080721A6000BF194A1268C3
:1009200002F00072002AF9D0174A126842F48032AD
:10093000154B1A6000BF144A526802F48032002A34
:10094000F9D0114A126842F400320F4B1A6000BF0E
:100950000D4A526802F40032002AF9D0094A52685E
:1009600022F00302074B5A601A46526842F0020214
:100970005A6000BF034A526802F00802002AF9D008
:10098000704700000010024000700040FFFFC3B736
:100990000000340810B5FFF773FF10BD10B5124802
:1009A00000684FF47A71B0FBF1F4601EB0F1807F03
:1009B00001D301200FE0601E4FF0E02148610F21BC
:1009C0004FF0FF30FFF7ECFB00204FF0E021886193
:1009D00007200861002008B100BFFEE70021481E83
:1009E000FFF7DEFB10BD0000440000200C0A0008E9
:1009F000000000204800000048020008540A0008D7
:100A00004800002000040000580200080600000012
:100A10005B0000004F00000077000000660000004F
:100A20006D0000007D0000007C0000000700000059
:100A30007F0000006F00000039000000000000008F
:100A40003F000000FF0000005E000000000000000A
:040A5000000E270766
:0400000508000131BD
:00000001FF
