:020000040800F2
:10000000C8040020490100089F010008970100086A
:100010009B01000891010008450200080000000053
:10002000000000000000000000000000CB010008FC
:100030009501000800000000C9010008CD0100087A
:100040006301000863010008630100086301000800
:1000500063010008630100086301000863010008F0
:1000600063010008630100086301000863010008E0
:1000700063010008630100086301000863010008D0
:1000800063010008630100086301000863010008C0
:1000900063010008630100086301000863010008B0
:1000A00063010008630100086301000863010008A0
:1000B0006301000863010008630100086301000890
:1000C0006301000863010008630100086301000880
:1000D0006301000863010008630100086301000870
:1000E0006301000863010008630100086301000860
:1000F0006301000863010008630100086301000850
:10010000630100086301000863010008630100083F
:10011000630100086301000863010008630100082F
:10012000630100086301000863010008630100081F
:10013000DFF810D000F01AF8004800476105000809
:10014000AFF30080C80400200648804706480047F7
:10015000FEE7FEE7FEE7FEE7FEE7FEE7FEE7FEE777
:10016000FEE7FEE7D501000831010008064C074D07
:1001700006E0E06840F0010394E807009847103477
:10018000AC42F6D3FFF7D8FF6408000884080008E3
:1001900000BFFEE7704700BFFEE700BFFEE7704705
:1001A00010B5002807DA0A07140E054A00F00F03FD
:1001B0001B1FD45403E00A07130E024A135410BD48
:1001C00018ED00E000E400E07047704710B500F063
:1001D00055F810BD08B51848006840F4700016497D
:1001E00008601648006840F001001449086008469D
:1001F000406840F0800048600020009002E00098D5
:10020000401C009044F6206100988842F7D30020FB
:100210000A494860C8620846006809490840074919
:1002200008604FF41F0088600846006820F48020B2
:10023000086000F0EBFA08BD88ED00E00010024015
:10024000FFFFF6FE00BFFEE702E008C8121F08C16C
:10025000002AFAD170477047002001E001C1121F47
:10026000002AFBD1704700000349086000BF024923
:1002700009680029FBD1704740000020044800684D
:1002800020B103480068401E014908607047000023
:100290004000002010B52C4B1B6883432A4C236080
:1002A000231D1B688343241D2360231D1B68834378
:1002B000241D2360231D1B688343241D236011B16B
:1002C00001290ED105E0204B1B6803431E4C23601F
:1002D00008E01D4B1B1D1B6803431B4C241D2360A2
:1002E00000E000BF00BF22B1012A0FD0022A27D1AF
:1002F00019E0154B08331B680343134C0834236083
:10030000231D1B688343241D23601AE00E4B083312
:100310001B6883430C4C08342360231D1B68034374
:10032000241D23600DE0084B08331B680343064C73
:1003300008342360231D1B680343241D236000E051
:1003400000BF00BF10BD000000040140014908606B
:10035000704700001404014070B504460D4617496B
:1003600031F8140000F0A8F94FF4C06000F0A4F9CF
:10037000134951F82430134951F824000322042171
:1003800000F086F8012D17D10F49085D00220221E7
:1003900000F026F90D4A115D0D4A105D00F02CF8B1
:1003A0000C4951F8240001220021FFF773FF09498D
:1003B00051F82400FFF7CAFF70BD0000A80000201C
:1003C0009C00002090000020C2000020BF00002000
:1003D000BC000020B000002010B50446044A52F8CA
:1003E0002410044A52F8240000F0B0F810BD0000B8
:1003F0009C0000209000002010B500228B071C0FED
:100400000F2303FA04F204290EDA204B9B6893436E
:100410001E4CA36023469B688C07240F00FA04F44B
:1004200023431A4CA3602FE008290EDA174BDB6830
:100430009343164CE3602346DB688C07240F00FAD5
:1004400004F42343114CE3601EE00C290EDA0F4B39
:100450001B6993430D4C236123461B698C07240FB2
:1004600000FA04F42343094C23610DE0074B5B6958
:100470009343064C636123465B698C07240F00FAA3
:1004800004F42343014C636110BD000000000140EF
:10049000F0B5044616460025002201F00F0501F0D4
:1004A000100747B1042E05D145F00305E76B1F4344
:1004B000E76300E0354300201EE0012787401F402E
:1004C000C7B122684FEA800C0F2707FA0CF7BA432E
:1004D000870005FA07F73A43282904D10127874006
:1004E0001F40676105E0482903D1012787401F406D
:1004F00027612260471CB8B20828DED3082022E01A
:10050000012787401F40E7B16268A0F108074FEA62
:10051000870C0F2707FA0CF7BA43A0F10807BF00B2
:1005200005FA07F73A43282904D1012787401F40DD
:10053000676105E0482903D1012787401F402761F3
:100540006260471CB8B21028DAD3F0BD024690684A
:10055000084008B1012070470020FCE7C1607047E7
:1005600000210120FFF7F8FE00210220FFF7F4FE32
:1005700000210846FFF7F0FE00F0AEF800F04AF95F
:1005800028E00020FFF728FF48B93220FFF76CFE73
:100590001148808F81B21148FFF7E0FF1AE0012077
:1005A000FFF71AFF48B93220FFF75EFE0A48008DB8
:1005B00081B20A48FFF7D2FF0CE00220FFF70CFFE0
:1005C00040B93220FFF750FE0348808A81B20348C9
:1005D000FFF7C4FFD5E70000000000200014014031
:1005E0002DE9F04103460D46164600240027A0469B
:1005F0002A48006800F4E060B0F5E06F03D100BF66
:100600004FF0040830E02548006800F4E060B0F5E1
:10061000C06F03D101274FF0030825E01F48006891
:1006200000F4E060B0F5A06F02D10227B8461BE0ED
:100630001A48006800F4E060B0F5806F03D103272A
:100640004FF0010810E01548006800F4E060B0F5D4
:10065000407F03D104274FF0000805E04FF4A0606D
:1006600000F020F80227B846C7F1040005FA00F4AC
:10067000C8F104010F20C840304004432401084859
:10068000C45403F01F01012088405911890001F171
:10069000E021C1F80001BDE8F08100000CED00E0B0
:1006A00000E400E002490143024A11607047000083
:1006B0000000FA050CED00E0064A02EB9011096813
:1006C00000F01F0301229A401143024B03EB9012EA
:1006D000116070470010024010B540F20560FFF74E
:1006E000EBFF4FF6FF73032210210248FFF7D0FE05
:1006F00010BD000000140140002000213F4A126894
:1007000042F480323D4B1A6000BF401C3B4A1268E5
:1007100002F4003119B94FF6FF729042F5D1374A11
:10072000126802F400320AB900BFFEE7334AD26908
:1007300042F08052314BDA61314A126842F4404251
:100740002F4B1A602D4A52682C4B5A601A46526839
:100750005A601A46526842F480625A601A465268D9
:1007600022F440325A601A46526842F440325A60CB
:100770001A465268234B1A40204B5A601A46526858
:10078000214B1A431D4B5A601A46126842F0807280
:100790001A6000BF194A126802F00072002AF9D0EC
:1007A000174A126842F48032154B1A6000BF144A8F
:1007B000526802F48032002AF9D0114A126842F4D9
:1007C00000320F4B1A6000BF0D4A526802F400322B
:1007D000002AF9D0094A526822F00302074B5A60F6
:1007E0001A46526842F002025A6000BF034A526839
:1007F00002F00802002AF9D0704700000010024001
:1008000000700040FFFFC3B70000340810B5FFF7C9
:1008100073FF10BD10B5124800684FF47A71B0FB39
:10082000F1F4601EB0F1807F01D301200FE0601E63
:100830004FF0E02148610F214FF0FF30FFF7B0FC8F
:1008400000204FF0E021886107200861002008B1F6
:1008500000BFFEE70021481EFFF7A2FC10BD00000C
:10086000440000208408000800000020C8000000A8
:10087000480200084C090008C800002000040000DD
:1008800058020008060000005B0000004F00000056
:1008900077000000660000006D0000007D00000091
:1008A0007C000000070000007F0000006F000000D7
:1008B00039000000790000003F0000005E000000E9
:1008C0007100000000000000000E2707001001402A
:1008D0000010014000180140001801400100000014
:1008E0000400000001000000020000000E061107D5
:1008F00000020000040000000004000008000000E6
:100900000008014000080140020602060406040631
:10091000060606060008014000100140000C0140D8
:100920000100000000200000004000000206040654
:10093000030600000100000000200000004000004D
:0C094000000201000D0E06282800000037
:0400000508000131BD
:00000001FF
